:100000000C9462000C948A000C948A000C948A0070
:100010000C948A000C948A000C948A000C948A0038
:100020000C948A000C948A000C948A000C948A0028
:100030000C948A000C948A000C948A000C948A0018
:100040000C947D040C948A000C944B040C942504AD
:100050000C948A000C948A000C948A000C948A00F8
:100060000C948A000C948A000000000024002700F1
:100070002A0000000000250028002B0000000000DE
:1000800023002600290004040404040404040202DA
:100090000202020203030303030301020408102007
:1000A0004080010204081020010204081020000012
:1000B0000008000201000003040700000000000027
:1000C0000000230B11241FBECFEFD8E0DEBFCDBF51
:1000D00012E0A0E0B1E0E4EFF6E102C005900D927D
:1000E000A037B107D9F723E0A0E7B2E001C01D9225
:1000F000A832B207E1F710E0C2E6D0E004C02197D1
:10010000FE010E94720BC136D107C9F70E94C704D5
:100110000C94780B0C940000AF92BF92CF92DF92B8
:10012000EF92FF920F931F93CF93DF936C017B01AC
:100130008B01040F151FEB015E01AE18BF08C0173D
:10014000D10759F06991D601ED91FC910190F081B0
:10015000E02DC6010995892B79F7C501DF91CF9173
:100160001F910F91FF90EF90DF90CF90BF90AF90D5
:100170000895FC01538D448D252F30E0842F90E0AD
:10018000821B930B541710F0CF9608950197089592
:10019000FC01918D828D981761F0A28DAE0FBF2F5B
:1001A000B11D5D968C91928D9F5F9F73928F90E0B1
:1001B00008958FEF9FEF0895FC01918D828D981720
:1001C00031F0828DE80FF11D858D90E008958FEF5D
:1001D0009FEF0895FC01918D228D892F90E0805C26
:1001E0009F4F821B91098F73992708958BE892E0A6
:1001F0000E94EA0021E0892B09F420E0822F089573
:1002000080E090E0892B29F00E94F60081110C9487
:1002100000000895FC01A48DA80FB92FB11DA35AA9
:10022000BF4F2C91848D90E001968F739927848F16
:10023000A689B7892C93A089B1898C918370806439
:100240008C93938D848D981306C00288F389E02DDA
:1002500080818F7D80830895EF92FF920F931F938B
:10026000CF93DF93EC0181E0888F9B8D8C8D981369
:100270001AC0E889F989808185FF15C09FB7F89475
:10028000EE89FF896083E889F989808183708064C1
:1002900080839FBF81E090E0DF91CF911F910F910C
:1002A000FF90EF900895F62E0B8D10E00F5F1F4F1B
:1002B0000F731127E02E8C8D8E110CC00FB607FC2A
:1002C000FACFE889F989808185FFF5CFCE010E94B8
:1002D0000A01F1CFEB8DEC0FFD2FF11DE35AFF4F1B
:1002E000F0829FB7F8940B8FEA89FB898081806246
:1002F000CFCFCF93DF93EC01888D8823B9F0AA8903
:10030000BB89E889F9898C9185FD03C0808186FDD0
:100310000DC00FB607FCF7CF8C9185FFF2CF80811F
:1003200085FFEDCFCE010E940A01E9CFDF91CF9189
:100330000895833081F028F4813099F08230A9F05B
:1003400008958730A9F08830C9F08430B1F48091E5
:1003500080008F7D03C0809180008F778093800024
:10036000089584B58F7784BD089584B58F7DFBCFC4
:100370008091B0008F778093B00008958091B00095
:100380008F7DF9CFCF93DF93282F30E0F901E2552D
:10039000FF4F8491F901E656FF4FD491F901EA57D6
:1003A000FF4FC491CC23A1F081110E949901EC2F41
:1003B000F0E0EE0FFF1FE458FF4FA591B491EC91D0
:1003C000ED2381E090E009F480E0DF91CF91089582
:1003D00080E090E0FACF1F93CF93DF93282F30E097
:1003E000F901E255FF4F8491F901E656FF4FD49190
:1003F000F901EA57FF4FC491CC23A9F0162F8111C0
:100400000E949901EC2FF0E0EE0FFF1FEE58FF4F16
:10041000A591B4918FB7F894EC91111108C0D095C3
:10042000DE23DC938FBFDF91CF911F910895DE2BE8
:10043000F8CFCF93DF9390E0FC01E656FF4F249175
:100440008A579F4FFC0184918823D1F090E0880F58
:10045000991FFC01E859FF4FA591B491FC01EE589A
:10046000FF4FC591D49161110EC09FB7F8948C9144
:10047000E22FE0958E238C932881E223E8839FBFAF
:10048000DF91CF9108958FB7F894EC91E22BEC9324
:100490008FBFF6CF1F93CF93DF93182FEB0161E04F
:1004A0000E941902209739F460E0812FDF91CF91EB
:1004B0001F910C94EB01E12FF0E0E255FF4FE49126
:1004C000E33011F148F4E130B9F0E23069F784B576
:1004D000806284BDC8BD14C0E73001F1E83031F15D
:1004E000E43011F780918000806280938000D09387
:1004F0008B00C0938A0004C084B5806884BDC7BDEA
:10050000DF91CF911F910895809180008068809342
:100510008000D0938900C0938800F2CF8091B00012
:1005200080688093B000C093B300EACF8091B000A0
:1005300080628093B000C093B400E2CF3FB7F894DC
:100540008091750290917602A0917702B091780225
:1005500026B5A89B05C02F3F19F00196A11DB11D1E
:100560003FBFBA2FA92F982F8827BC01CD01620F5A
:10057000711D811D911D42E0660F771F881F991F15
:100580004A95D1F708958F929F92AF92BF92CF92E2
:10059000DF92EF92FF924B015C010E949E026B0181
:1005A0007C010E949E026C197D098E099F09683E9C
:1005B000734081059105A8F321E0821A9108A108F2
:1005C000B10888EEC80E83E0D81EE11CF11C81142E
:1005D0009104A104B10429F7FF90EF90DF90CF9030
:1005E000BF90AF909F908F90089561E082E10E944C
:1005F000EB0160E081E10E94EB0161E080E10E949B
:10060000EB0160E08FE00E94EB0170E060E085E0CC
:100610000E944A0268E770E086E00C944A0261E0BA
:1006200082E10E94EB0160E081E10E94EB0160E069
:1006300080E10E94EB0161E08FE00E94EB0168E243
:1006400070E085E00E944A0268E770E086E00C9462
:100650004A0260E082E10E94EB0161E081E10E94D8
:10066000EB0161E080E10E94EB0160E08FE00E941D
:10067000EB0168E770E085E00E944A0268E270E002
:1006800086E00C944A0261E082E10E94EB0160E0A6
:1006900081E10E94EB0161E080E10E94EB0160E0FA
:1006A0008FE00E94EB0168E770E085E00E944A025B
:1006B00070E060E086E00C944A0260E082E10E9413
:1006C000EB0160E081E10E94EB0160E080E10E94CB
:1006D000EB0160E08FE00C94EB0161E082E10E94AD
:1006E000EB0160E081E10E94EB0161E080E10E94AA
:1006F000EB0160E08FE00E94EB0168E770E085E0CD
:100700000E944A0268E770E086E00E944A026AE0BE
:1007100070E080E090E00C94C302FC0101900020A6
:10072000E9F73197AF01481B590BBC018BE892E008
:100730000C948C00CF93DF930E948D03EC0182E137
:1007400091E00E948D038C0F9D1FDF91CF91089542
:100750008F929F92AF92BF92CF92DF92EF92FF92D1
:100760000F931F93CF93DF93CDB7DEB7A1970FB64B
:10077000F894DEBF0FBECDBF6C01990FEE08FF08E5
:10078000F7FE41C06DE28BE892E00E942C018C01E3
:1007900022273327A9012C193D094E095F0919A207
:1007A000CE0181967C019AE0892E912CA12CB12C4E
:1007B000CA01B901A50194010E94500B605DF701C7
:1007C00062937F01211531054105510589F790E0BC
:1007D00080E0309719F0CF010E948D03800F911FA8
:1007E000A1960FB6F894DEBF0FBECDBFDF91CF91BB
:1007F0001F910F91FF90EF90DF90CF90BF90AF903F
:100800009F908F900895A701960119A28E010F5D08
:100810001F4F8AE0C82ED12CE12CF12CCA01B9015E
:10082000A70196010E94500B605DF80162938F0151
:10083000211531054105510589F790E080E0309799
:1008400079F2CF010E948D03CBCF1F920F920FB68A
:100850000F9211242F933F934F935F936F937F9346
:100860008F939F93AF93BF93EF93FF938BE892E0A7
:100870000E940A01FF91EF91BF91AF919F918F91DB
:100880007F916F915F914F913F912F910F900FBE8C
:100890000F901F9018951F920F920FB60F92112470
:1008A0002F938F939F93EF93FF93E0919B02F0918F
:1008B0009C028081E091A102F091A20282FD1BC006
:1008C00090818091A4028F5F8F732091A50282177F
:1008D00041F0E091A402F0E0E557FD4F958F809341
:1008E000A402FF91EF919F918F912F910F900FBED6
:1008F0000F901F9018958081F4CF1F920F920FB622
:100900000F9211242F933F938F939F93AF93BF9395
:100910008091710290917202A0917302B091740261
:100920003091700223E0230F2D3758F50196A11D59
:10093000B11D209370028093710290937202A09374
:100940007302B09374028091750290917602A09127
:100950007702B09178020196A11DB11D80937502B6
:1009600090937602A0937702B0937802BF91AF91F3
:100970009F918F913F912F910F900FBE0F901F90DD
:10098000189526E8230F0296A11DB11DD2CF7894A9
:1009900084B5826084BD84B5816084BD85B5826084
:1009A00085BD85B5816085BD80916E008160809335
:1009B0006E0010928100809181008260809381009E
:1009C00080918100816080938100809180008160AE
:1009D000809380008091B10084608093B100809109
:1009E000B00081608093B00080917A008460809331
:1009F0007A0080917A00826080937A0080917A00F8
:100A0000816080937A0080917A00806880937A0078
:100A10001092C10060E087E00E94190260E088E067
:100A20000E94190260E089E00E94190260E08AE0F9
:100A30000E94190260E08BE00E94190260E08CE0E5
:100A40000E94190260E08DE00E94190261E082E1DB
:100A50000E94190261E081E10E94190261E080E1D7
:100A60000E94190261E08FE00E94190261E085E0B6
:100A70000E94190261E086E00E941902E0919B0247
:100A8000F0919C0282E08083E0919702F0919802BD
:100A90001082E0919902F0919A028FEC808310927B
:100AA000A302E0919F02F091A00286E08083E09192
:100AB0009D02F0919E02808180618083E0919D0281
:100AC000F0919E02808188608083E0919D02F09188
:100AD0009E02808180688083E0919D02F0919E0259
:100AE00080818F7D808300E010E087E00E94C2015A
:100AF00090938A028093890288E00E94C2019093B9
:100B000088028093870289E00E94C2019093860246
:100B1000809385028AE00E94C201909384028093B0
:100B200083028BE00E94C201909382028093810233
:100B30008CE00E94C2019093800280937F028DE03E
:100B40000E94C20190937E0280937D0287E00E9402
:100B5000C2010E94A80388E00E94C2010E94A8036B
:100B600089E00E94C2010E94A8038AE00E94C2019B
:100B70000E94A8038BE00E94C2010E94A8038CE09F
:100B80000E94C2010E94A8038DE00E94C2010E943F
:100B9000A80385E191E00E949A03809189029091D7
:100BA0008A028130910509F0B6C0C0918702D091C8
:100BB0008802C130D10509F0A6C0809185029091CC
:100BC0008602892BD1F48091830290918402892B33
:100BD000A1F48091810290918202892B71F480911D
:100BE0007F0290918002019741F480917D02909163
:100BF0007E02019711F40E946D038091850290910D
:100C00008602892BD1F48091830290918402892BF2
:100C1000A1F48091810290918202892B71F48091DC
:100C20007F0290918002019741F480917D02909122
:100C30007E02892B11F40E946D03809185029091B0
:100C400086020197D1F48091830290918402892BCE
:100C5000A1F48091810290918202019771F48091B8
:100C60007F0290918002019741F480917D029091E2
:100C70007E02019711F40E946D038091850290918C
:100C800086020197D1F480918302909184020197AA
:100C9000A1F48091810290918202892B71F480915C
:100CA0007F0290918002019741F480917D029091A2
:100CB0007E02019711F40E946D038091850290914C
:100CC0008602892B01F5809183029091840201971D
:100CD000D1F480918102909182020197A1F48091D8
:100CE0007F0290918002019771F480917D02909132
:100CF0007E02019741F40E94430364E170E080E0CA
:100D000090E00E94C302209709F487C0C130D1054A
:100D100009F4A9C0CEC0892B09F09CC1C0918702FB
:100D2000D0918802209701F58091850290918602EA
:100D3000892BD1F48091830290918402892BA1F4B4
:100D40008091810290918202892B71F480917F02BF
:100D500090918002019741F480917D0290917E02F2
:100D6000019711F40E946D03209731F5809185025F
:100D700090918602892B01F58091830290918402E3
:100D8000892BD1F48091810290918202892BA1F468
:100D900080917F0290918002892B71F480917D0275
:100DA00090917E02019741F40E9443036EE170E04E
:100DB00080E090E00E94C302209709F4D0C0C130C7
:100DC000D10509F018C180918502909186020197A2
:100DD00009F011C18091830290918402019709F07A
:100DE0000AC18091810290918202019709F003C1AA
:100DF00080917F0290918002019709F0FCC0809160
:100E00007D0290917E02019709F0F5C00E94430394
:100E100068E270E080E090E0ECC080918502909103
:100E20008602892B01F58091830290918402892B9F
:100E3000D1F48091810290918202892BA1F480915A
:100E40007F0290918002892B71F480917D029091B4
:100E50007E02892B41F40E946D0364E170E080E022
:100E600090E00E94C3028091850290918602892BB6
:100E700001F58091830290918402892BD1F48091B5
:100E80008102909182020197A1F480917F0290915A
:100E90008002019771F480917D0290917E0201970A
:100EA00041F40E94430364E170E080E090E00E941E
:100EB000C302209709F440C1219709F089C18091AC
:100EC000850290918602892B09F082C1809183026C
:100ED00090918402892B09F07BC1809181029091CD
:100EE0008202892B09F074C180917F029091800267
:100EF000892B09F06DC180917D0290917E02892B32
:100F000009F066C188E191E00E948D03C0917902E9
:100F1000D0917A022196D0937A02C093790285E12A
:100F200091E00E949A038CE291E00E948D03CE0131
:100F30000E94A80385E191E00E949A03C130D10587
:100F400009F0D9C20E946D0366E970E080E090E08C
:100F50000E94C3028AE391E00E949A0374C08091C8
:100F6000850290918602892B01F5809183029091F0
:100F700084020197D1F480918102909182020197BD
:100F8000A1F480917F0290918002019771F4809189
:100F90007D0290917E02019741F40E94430364E137
:100FA00070E080E090E00E94C30280918502909101
:100FB0008602019701F58091830290918402019746
:100FC000D1F480918102909182020197A1F48091E5
:100FD0007F0290918002019771F480917D0290913F
:100FE0007E02019741F40E94430364E170E080E0D7
:100FF00090E00E94C302CD2B69F58091850290910B
:101000008602892B39F58091830290918402892B85
:1010100009F580918102909182020197D9F4809123
:101020007F02909180020197A9F480917D029091B6
:101030007E02019779F40E94430364E170E080E04E
:1010400090E00E94C3028091890290918A020197E8
:1010500009F4BEC08091890290918A02892B09F01F
:10106000EBC28091870290918802892B09F0E4C23B
:101070008091850290918602892B09F0DDC28091D2
:10108000830290918402892B09F0D6C2809181025B
:1010900090918202892B09F0CFC280917F029091BA
:1010A0008002892B09F0C8C280917D0290917E0256
:1010B000892B09F0C1C286EB91E00E948D03E0907C
:1010C0007B02F0907C02E7012196D0937C02C093D2
:1010D0007B0285E191E00E949A0386ED91E00E94F7
:1010E0008D03CE010E94A80385E191E00E949A033E
:1010F000C130D10509F011C20E94290364E670E0F5
:1011000080E090E00E94C3020E946D0362E370E001
:1011100080E090E00E94C3028EED91E00E949A036D
:101120000115110509F4E1CC0E94F600882309F4A9
:10113000DCCC0E940000D9CC80918502909186027F
:10114000892B01F58091830290918402892BD1F43F
:101150008091810290918202892BA1F480917F027B
:1011600090918002019771F480917D0290917E02AE
:10117000019741F40E94430364E170E080E090E055
:101180000E94C3028091850290918602892B01F50D
:1011900080918302909184020197D1F48091810221
:1011A000909182020197A1F480917F029091800238
:1011B000019771F480917D0290917E02019741F434
:1011C0000E94430364E170E080E090E00E94C3026B
:1011D0008091870290918802019709F02DC2809139
:1011E000850290918602892B01F58091830290916E
:1011F0008402892BD1F48091810290918202892B03
:10120000A1F480917F0290918002892B71F48091EA
:101210007D0290917E02019741F40E94F50264E103
:1012200070E080E090E00E94C3028091850290917E
:101230008602019701F58091830290918402892BA7
:10124000D1F48091810290918202892BA1F4809146
:101250007F0290918002892B71F480917D029091A0
:101260007E02892B41F40E94F50264E170E080E087
:1012700090E00E94C30280918502909186020197BE
:1012800001F580918302909184020197D1F48091BD
:10129000810290918202892BA1F480917F0290912A
:1012A0008002892B71F480917D0290917E02892BBE
:1012B00041F40E94F50269E170E080E090E00E9454
:1012C000C3028091850290918602019701F5809179
:1012D000830290918402892BD1F4809181029091B4
:1012E0008202892BA1F480917F0290918002892B48
:1012F00071F480917D0290917E02019741F40E94E9
:10130000F50264E170E080E090E00E94C302809109
:10131000850290918602019701F580918302909158
:1013200084020197D1F48091810290918202019709
:10133000A1F480917F0290918002892B71F48091B9
:101340007D0290917E02892B41F40E94F50264E1B6
:1013500070E080E090E00E94C3028091850290914D
:101360008602019701F58091830290918402019792
:10137000D1F480918102909182020197A1F4809131
:101380007F0290918002019771F480917D0290918B
:101390007E02892B41F40E94F50262E370E080E056
:1013A00090E00E94C302809185029091860201978D
:1013B00001F580918302909184020197D1F480918C
:1013C000810290918202892BA1F480917F029091F9
:1013D0008002892B71F480917D0290917E020197A9
:1013E00041F40E94F50264E170E080E090E00E9428
:1013F000C3028091850290918602019701F5809148
:10140000830290918402892BD1F480918102909182
:101410008202892BA1F480917F0290918002019732
:1014200071F480917D0290917E02019741F40E94B7
:10143000F50264E170E080E090E00E94C3028091D8
:10144000850290918602019709F0F6C0809183028F
:1014500090918402019709F0EFC0809181029091F0
:101460008202019709F0E8C080917F02909180028A
:10147000019709F0E1C080917D0290917E02019771
:1014800009F0DAC0C0917B02D0917C0287E991E03B
:101490000E948D032F9734F561E081E10E94EB01FA
:1014A00060E082E10E94EB0161E08FE00E94EB01CD
:1014B00060E080E10E94EB016AE570E085E00E9457
:1014C0004A026AE570E086E00E944A0268E270E043
:1014D00080E090E00E94C30262E370E080E090E070
:1014E0000E94C3020E945D0364E170E080E090E02E
:1014F0000E94C302AFCD229759F40E940F0368EBFC
:1015000071E080E090E00E94C30288E591E024CD84
:101510000E946D0388E791E01FCDC70101970497F2
:1015200058F40E946D0364E670E080E090E00E9451
:10153000C3028DEF91E0F2CDC630D10559F40E947F
:1015400029036BED71E080E090E00E94C30283E12B
:1015500092E0E4CDC730D10559F40E94290366ED2D
:1015600071E080E090E00E94C30286E292E0D6CD76
:1015700087E0E81AF10883E0E816F10490F2CB3036
:10158000D10569F489E392E00E949A030E940F0357
:101590006BED71E080E090E00E94C302C1CDCC30E1
:1015A000D10509F4BECFCD30D10539F40E946D03C9
:1015B00068E770E080E090E0BACFCE30D10559F412
:1015C0008EE492E00E949A030E940F0360E971E0AA
:1015D00080E090E0E1CF64E670E080E090E02F975B
:1015E000D9F682E692E00E949A0361E082E10E94CD
:1015F000EB0160E081E10E94EB0161E080E10E948B
:10160000EB0160E08FE00E94EB0162E370E085E0B7
:101610000E944A0262E370E086E00E944A0266ECA1
:1016200072E080E090E00E94C3020E945D0360E4EB
:1016300072E48FE090E0B0CF0E945D0364E170E05F
:1016400080E090E0A9CFEBE8F2E01382128288EE0E
:1016500093E0A0E0B0E084839583A683B78384E021
:1016600091E09183808385EC90E09587848784EC7A
:1016700090E09787868780EC90E0918B808B81EC5F
:1016800090E0938B828B82EC90E0958B848B86EC40
:1016900090E0978B868B118E128E138E148E089588
:1016A000A1E21A2EAA1BBB1BFD010DC0AA1FBB1F66
:1016B000EE1FFF1FA217B307E407F50720F0A21BD8
:1016C000B30BE40BF50B661F771F881F991F1A9445
:1016D00069F760957095809590959B01AC01BD016F
:1016E000CF010895EE0FFF1F0590F491E02D0994AE
:0416F000F894FFCF9C
:1016F400000000002C018C00B9007901EA00C80048
:10170400DC000D0A002020002A2A2A2054204A75D1
:101714006E6374696E6F6E202A2A2A00636F756E79
:10172400744C6566745473203A002E2E2E2E2E2E81
:1017340020476F20466F727761642E2E2E46726F9B
:101744006D2D542E2E2E20002E2E2E2E2E2E205475
:10175400616B65207475726E2E2E2E2E46726F6D1F
:1017640020542E2E2E2E20002E2E2E2E2E2E2047AE
:101774006F20466F727761642E2E2E2E46726F6D27
:101784002D542E2E2E20002121212121212157727A
:101794006F6E675455524E202D204261636B212198
:1017A400212121212100212121212121212121580F
:1017B400204A756E6374696E6F6E20212121212188
:1017C400212121212100636F756E74203A00546138
:1017D4006B65207475726E202620476F20466F72E9
:1017E4007761642E2E2E58312E2E2E20002E2E2E72
:1017F4002E2E2E20476F20466F727761642E2E2E78
:101804002E200054616B65207475726E2E2E2E5836
:10181400362E2E2E200054616B65207475726E2E48
:101824002E2E58372E2E2E200054616B6520747591
:10183400726E2E2E2E2E5831312E2E2E20005461F3
:101844006B65207475726E2E2E2E2E5831342E2E0A
:1018540020002323232353746F702E2E2E2E20005A
:00000001FF
